{
  "contractName": "Votation",
  "abi": [
    {
      "constant": true,
      "inputs": [
        {
          "name": "",
          "type": "address"
        }
      ],
      "name": "hasVoted",
      "outputs": [
        {
          "name": "",
          "type": "bool"
        }
      ],
      "payable": false,
      "stateMutability": "view",
      "type": "function"
    },
    {
      "constant": true,
      "inputs": [
        {
          "name": "",
          "type": "uint256"
        }
      ],
      "name": "candidates",
      "outputs": [
        {
          "name": "id",
          "type": "uint256"
        },
        {
          "name": "name",
          "type": "string"
        },
        {
          "name": "count",
          "type": "uint256"
        }
      ],
      "payable": false,
      "stateMutability": "view",
      "type": "function"
    },
    {
      "constant": true,
      "inputs": [],
      "name": "owner",
      "outputs": [
        {
          "name": "",
          "type": "address"
        }
      ],
      "payable": false,
      "stateMutability": "view",
      "type": "function"
    },
    {
      "constant": true,
      "inputs": [],
      "name": "candidateCount",
      "outputs": [
        {
          "name": "",
          "type": "uint256"
        }
      ],
      "payable": false,
      "stateMutability": "view",
      "type": "function"
    },
    {
      "inputs": [],
      "payable": false,
      "stateMutability": "nonpayable",
      "type": "constructor"
    },
    {
      "constant": false,
      "inputs": [
        {
          "name": "name",
          "type": "string"
        }
      ],
      "name": "addCandidate",
      "outputs": [],
      "payable": false,
      "stateMutability": "nonpayable",
      "type": "function"
    },
    {
      "constant": false,
      "inputs": [
        {
          "name": "id",
          "type": "uint256"
        }
      ],
      "name": "vote",
      "outputs": [],
      "payable": false,
      "stateMutability": "nonpayable",
      "type": "function"
    }
  ],
  "bytecode": "0x608060405234801561001057600080fd5b5033600160006101000a81548173ffffffffffffffffffffffffffffffffffffffff021916908373ffffffffffffffffffffffffffffffffffffffff16021790555061009f6040805190810160405280600481526020017f416e6479000000000000000000000000000000000000000000000000000000008152506100f1640100000000026401000000009004565b6100ec6040805190810160405280600481526020017f4a61636b000000000000000000000000000000000000000000000000000000008152506100f1640100000000026401000000009004565b61026d565b600160009054906101000a900473ffffffffffffffffffffffffffffffffffffffff1673ffffffffffffffffffffffffffffffffffffffff163373ffffffffffffffffffffffffffffffffffffffff1614151561014d57600080fd5b60008081548092919060010191905055506060604051908101604052806000548152602001828152602001600081525060026000805481526020019081526020016000206000820151816000015560208201518160010190805190602001906101b79291906101c8565b506040820151816002015590505050565b828054600181600116156101000203166002900490600052602060002090601f016020900481019282601f1061020957805160ff1916838001178555610237565b82800160010185558215610237579182015b8281111561023657825182559160200191906001019061021b565b5b5090506102449190610248565b5090565b61026a91905b8082111561026657600081600090555060010161024e565b5090565b90565b6106af8061027c6000396000f300608060405260043610610078576000357c0100000000000000000000000000000000000000000000000000000000900463ffffffff1680630121b93f1461007d57806309eef43e146100aa5780633477ee2e14610105578063462e91ec146101b95780638da5cb5b14610222578063a9a981a314610279575b600080fd5b34801561008957600080fd5b506100a8600480360381019080803590602001909291905050506102a4565b005b3480156100b657600080fd5b506100eb600480360381019080803573ffffffffffffffffffffffffffffffffffffffff1690602001909291905050506103f9565b604051808215151515815260200191505060405180910390f35b34801561011157600080fd5b5061013060048036038101908080359060200190929190505050610419565b6040518084815260200180602001838152602001828103825284818151815260200191508051906020019080838360005b8381101561017c578082015181840152602081019050610161565b50505050905090810190601f1680156101a95780820380516001836020036101000a031916815260200191505b5094505050505060405180910390f35b3480156101c557600080fd5b50610220600480360381019080803590602001908201803590602001908080601f01602080910402602001604051908101604052809392919081815260200183838082843782019150505050505091929192905050506104db565b005b34801561022e57600080fd5b506102376105b2565b604051808273ffffffffffffffffffffffffffffffffffffffff1673ffffffffffffffffffffffffffffffffffffffff16815260200191505060405180910390f35b34801561028557600080fd5b5061028e6105d8565b6040518082815260200191505060405180910390f35b600160009054906101000a900473ffffffffffffffffffffffffffffffffffffffff1673ffffffffffffffffffffffffffffffffffffffff163373ffffffffffffffffffffffffffffffffffffffff161415151561030157600080fd5b600360003373ffffffffffffffffffffffffffffffffffffffff1673ffffffffffffffffffffffffffffffffffffffff16815260200190815260200160002060009054906101000a900460ff1615151561035a57600080fd5b6001811015801561036d57506000548111155b151561037857600080fd5b6001600360003373ffffffffffffffffffffffffffffffffffffffff1673ffffffffffffffffffffffffffffffffffffffff16815260200190815260200160002060006101000a81548160ff021916908315150217905550600260008281526020019081526020016000206002016000815480929190600101919050555050565b60036020528060005260406000206000915054906101000a900460ff1681565b6002602052806000526040600020600091509050806000015490806001018054600181600116156101000203166002900480601f0160208091040260200160405190810160405280929190818152602001828054600181600116156101000203166002900480156104cb5780601f106104a0576101008083540402835291602001916104cb565b820191906000526020600020905b8154815290600101906020018083116104ae57829003601f168201915b5050505050908060020154905083565b600160009054906101000a900473ffffffffffffffffffffffffffffffffffffffff1673ffffffffffffffffffffffffffffffffffffffff163373ffffffffffffffffffffffffffffffffffffffff1614151561053757600080fd5b60008081548092919060010191905055506060604051908101604052806000548152602001828152602001600081525060026000805481526020019081526020016000206000820151816000015560208201518160010190805190602001906105a19291906105de565b506040820151816002015590505050565b600160009054906101000a900473ffffffffffffffffffffffffffffffffffffffff1681565b60005481565b828054600181600116156101000203166002900490600052602060002090601f016020900481019282601f1061061f57805160ff191683800117855561064d565b8280016001018555821561064d579182015b8281111561064c578251825591602001919060010190610631565b5b50905061065a919061065e565b5090565b61068091905b8082111561067c576000816000905550600101610664565b5090565b905600a165627a7a7230582021a495ba7787e69ba44785459233237ff756a717d90a1f10d2c8238dc1b0b6ac0029",
  "source": "pragma solidity ^0.4.24;\n\ncontract Votation {\n    struct Candidate {\n        uint id;\n        string name;\n        uint count;\n    }\n\n    uint public candidateCount;\n    address public owner;\n\n    constructor() public {\n        owner = msg.sender;\n        addCandidate(\"Andy\");\n        addCandidate(\"Jack\");\n    }\n\n    modifier onlyOwner {\n        require(msg.sender == owner);\n        _;\n    }\n\n    modifier notOwner {\n        require(msg.sender != owner);\n        _;\n    }\n\n    mapping(uint => Candidate) public candidates;\n    function addCandidate(string memory name) onlyOwner public {\n        candidateCount++;\n        candidates[candidateCount] = Candidate(candidateCount, name, 0);\n    }\n\n    // record whether a account has voted or not.\n    mapping(address => bool) public hasVoted;\n    function vote(uint id) notOwner public {\n        require(!hasVoted[msg.sender]);\n\n        require(id >=1 && id <= candidateCount);\n\n        hasVoted[msg.sender] = true;\n\n        candidates[id].count++;\n    }\n}",
  "sourcePath": "/Users/scrapup/go/src/DApp/votation/contracts/Votation.sol",
  "compiler": {
    "name": "solc",
    "version": "0.4.24+commit.e67f0147.Emscripten.clang"
  },
  "schemaVersion": "2.0.1",
  "updatedAt": "2018-12-23T15:41:10.707Z"
}