{
  "contractName": "Votation",
  "abi": [
    {
      "inputs": [],
      "payable": false,
      "stateMutability": "nonpayable",
      "type": "constructor"
    },
    {
      "constant": false,
      "inputs": [
        {
          "name": "name",
          "type": "string"
        }
      ],
      "name": "addCandidate",
      "outputs": [],
      "payable": false,
      "stateMutability": "nonpayable",
      "type": "function"
    },
    {
      "constant": false,
      "inputs": [
        {
          "name": "id",
          "type": "uint256"
        }
      ],
      "name": "vote",
      "outputs": [],
      "payable": false,
      "stateMutability": "nonpayable",
      "type": "function"
    }
  ],
  "bytecode": "0x608060405234801561001057600080fd5b5033600160006101000a81548173ffffffffffffffffffffffffffffffffffffffff021916908373ffffffffffffffffffffffffffffffffffffffff160217905550610451806100616000396000f3fe60806040526004361061004c576000357c0100000000000000000000000000000000000000000000000000000000900463ffffffff1680630121b93f14610051578063462e91ec1461008c575b600080fd5b34801561005d57600080fd5b5061008a6004803603602081101561007457600080fd5b8101908080359060200190929190505050610154565b005b34801561009857600080fd5b50610152600480360360208110156100af57600080fd5b81019080803590602001906401000000008111156100cc57600080fd5b8201836020820111156100de57600080fd5b8035906020019184600183028401116401000000008311171561010057600080fd5b91908080601f016020809104026020016040519081016040528093929190818152602001838380828437600081840152601f19601f8201169050808301925050505050505091929192905050506102a9565b005b600160009054906101000a900473ffffffffffffffffffffffffffffffffffffffff1673ffffffffffffffffffffffffffffffffffffffff163373ffffffffffffffffffffffffffffffffffffffff16141515156101b157600080fd5b600360003373ffffffffffffffffffffffffffffffffffffffff1673ffffffffffffffffffffffffffffffffffffffff16815260200190815260200160002060009054906101000a900460ff1615151561020a57600080fd5b6001811015801561021d57506000548111155b151561022857600080fd5b6001600360003373ffffffffffffffffffffffffffffffffffffffff1673ffffffffffffffffffffffffffffffffffffffff16815260200190815260200160002060006101000a81548160ff021916908315150217905550600260008281526020019081526020016000206002016000815480929190600101919050555050565b600160009054906101000a900473ffffffffffffffffffffffffffffffffffffffff1673ffffffffffffffffffffffffffffffffffffffff163373ffffffffffffffffffffffffffffffffffffffff1614151561030557600080fd5b600080815480929190600101919050555060606040519081016040528060005481526020018281526020016000815250600260008054815260200190815260200160002060008201518160000155602082015181600101908051906020019061036f929190610380565b506040820151816002015590505050565b828054600181600116156101000203166002900490600052602060002090601f016020900481019282601f106103c157805160ff19168380011785556103ef565b828001600101855582156103ef579182015b828111156103ee5782518255916020019190600101906103d3565b5b5090506103fc9190610400565b5090565b61042291905b8082111561041e576000816000905550600101610406565b5090565b9056fea165627a7a723058200fd83e80726e629a312afefd9c0602e4dc056964350edbb9684542da432915140029",
  "source": "pragma solidity ^0.5.0;\n\ncontract Votation {\n    struct Candidate {\n        uint id;\n        string name;\n        uint count;\n    }\n\n    uint candidateCount;\n    address owner;\n\n    constructor() public {\n        owner = msg.sender;\n    }\n\n    modifier onlyOwner {\n        require(msg.sender == owner);\n        _;\n    }\n\n    modifier notOwner {\n        require(msg.sender != owner);\n        _;\n    }\n\n    mapping(uint => Candidate) candidates;\n    function addCandidate(string memory name) onlyOwner public {\n        candidateCount++;\n        candidates[candidateCount] = Candidate(candidateCount, name, 0);\n    }\n\n    // record whether a account has voted or not.\n    mapping(address => bool) hasVoted;\n    function vote(uint id) notOwner public {\n        require(!hasVoted[msg.sender]);\n\n        require(id >=1 && id <= candidateCount);\n\n        hasVoted[msg.sender] = true;\n\n        candidates[id].count++;\n    }\n}",
  "sourcePath": "/Users/scrapup/go/src/oneDay-oneApp/contracts/Votation.sol",
  "compiler": {
    "name": "solc",
    "version": "0.5.0+commit.1d4f565a.Emscripten.clang"
  },
  "schemaVersion": "3.0.0",
  "updatedAt": "2018-12-22T13:14:33.961Z",
  "devdoc": {
    "methods": {}
  },
  "userdoc": {
    "methods": {}
  }
}